:04000000803119280A
:1000060008007E1480310B1F09280A2817282100B2
:10001600111C0E280F2817282000111C132814283D
:1000260017288731EA2780317E10090080311B2886
:10003600FA01FB01203084000030850028308C3125
:10004600C42480317E1020008731222F2000DB005F
:100056000A30F2000030F3005B08043E8600870198
:100066000108CC00CD014C08F4004D08F50086319E
:100076003E26803172082000CE007308CF000A3079
:10008600F2000030F3005B08043E86008701010899
:10009600D000D1015008F4005108F5008431D8246D
:1000A600803172082000D2000330D235FF3E031D96
:1000B600582852354E04D4000A30F2000030F300BE
:1000C6005B08033E860087010108CC00CD014C0881
:1000D600F4004D08F50086313E2680317208200076
:1000E600CE007308CF000A30F2000030F3005B0840
:1000F600033E860087010108D000D1015008F400B4
:100106005108F5008431D824803172082000D200CD
:100116000330D235FF3E031D8C2852354E04D500E0
:100126005B0A86008701010803199A289B28DA28AA
:100136000A30F2000030F3005B08860087010108F0
:10014600CC00CD014C08F4004D08F50086313E2662
:10015600803172082000CE007308CF000A30F2000A
:100166000030F3005B08860087010108D000D1014A
:100176005008F4005108F5008431D8248031720803
:100186002000D2000430D235890BC6285B08023E17
:10019600860087010108D3000430D335FF3E031DD6
:1001A600D028533552044E044038D6000C290A3064
:1001B600F2000030F3005B08860087010108CC00DE
:1001C600CD014C08F4004D08F50086313E268031FD
:1001D60072082000CE007308CF000A30F20000300B
:1001E600F3005B08860087010108D000D1015008A2
:1001F600F4005108F5008431D824803172082000BB
:10020600D2000330D235FF3E031D052952354E0478
:10021600D6005B0886008701453FD7000A30F2000A
:100226000030F3005B08063E860087010108CC001B
:10023600CD014C08F4004D08F50086313E2680318C
:1002460072082000CE007308CF000A30F20000309A
:10025600F3005B08063E860087010108D000D10145
:100266005008F4005108F5008431D8248031720812
:100276002000D2000330D235FF3E031D3E29523501
:100286004E04D8000A30F2000030F3005B08073E47
:10029600860087010108CC00CD014C08F4004D080A
:1002A600F50086313E26803172082000CE007308A4
:1002B600CF000A30F2000030F3005B08073E8600EC
:1002C60087010108D000D1015008F4005108F5005B
:1002D6008431D824803172082000D2000330D23510
:1002E600FF3E031D722952354E04D9000A30F20032
:1002F6000030F3005B08083E860087010108CC0049
:10030600CD014C08F4004D08F50086313E268031BB
:1003160072082000CE007308CF000A30F2000030C9
:10032600F3005B08083E860087010108D000D10172
:100336005008F4005108F5008431D8248031720841
:100346002000D2000330D235FF3E031DA6295235C8
:100356004E04DA008C31EF248031D0308D31B72550
:10036600803100308D31B72580310730F8005430A8
:100376008E314E2680318D311725803108002000C0
:10038600D5008C31EF248131D0308D31B7258131C4
:1003960000308D31B72581318C31EF248131D13058
:1003A6008D31B72581310730F8004E308F31502717
:1003B60081318D311725813120005508043E860094
:1003C60087010F304E05CC000A30F2004E08CD00F2
:1003D6000430CD36890BEC294D088D3172258131DB
:1003E60020004C0781005508033E860087010F3028
:1003F6004F05CC000A30F2004F08CD000430CD3650
:10040600890B022A4D088D317225813120004C0757
:100416008100550A860087015008CC000630CC368C
:10042600890B122A4C088100550A860087010108AB
:1004360003191E2A1F2A422A5508023E86008701F2
:100446005008CC000530CC36890B262A4C08810092
:100456005508860087010F305005CC000A30F2009F
:100466005008CD000430CD36890B362A4D080139A7
:100476008D317225813120004C078100582A55089C
:10048600860087010F305005CC000A30F200500874
:10049600CD000430CD36890B4D2A4D0803398D31F8
:1004A6007225813120004C0781005508053E8600E3
:1004B6008701510881005508063E860087010F30E6
:1004C6005205CC000A30F2005208CD000430CD3679
:1004D600890B6A2A4D088D317225813120004C071F
:1004E60081005508073E860087010F305305CC0072
:1004F6000A30F2005308CD000430CD36890B802A2D
:100506004D088D317225813120004C078100550838
:10051600083E860087010F305405CC000A30F200F1
:100526005408CD000430CD36890B962A4D088D31FE
:100536007225813120004C0781000800F300730802
:10054600073E8600870102300106031DAB2AAC2A4E
:10055600C62A7308063E860087011C30010203186E
:10056600B52AB62ABF2A0130F2007308063E860075
:100576008701720881073E2B7308063E86008701B5
:100586008101810A3E2B7308073E8600870101031D
:100596000319CE2ACF2A0B2B7308073E8600870144
:1005A600033001060319D82AD92A0B2B7308073EF4
:1005B60086008701053001060319E22AE32A0B2B80
:1005C6007308073E86008701073001060319EC2AE7
:1005D600ED2A0B2B7308073E8600870108300106BB
:1005E6000319F62AF72A0B2B7308073E86008701A4
:1005F6000A3001060319002B012B0B2B7308073E4B
:10060600860087010C300106031D0A2B0B2B252BB8
:100616007308063E860087011F3001020318142B5B
:10062600152B1E2B0130F2007308063E860087014B
:10063600720881073E2B7308063E860087018101FA
:10064600810A3E2B7308063E860087011E30010292
:1006560003182E2B2F2B382B0130F2007308063E81
:1006660086008701720881073E2B7308063E8600C6
:1006760087018101810A0800F4007D2B22000D12FA
:100686000D118D108D11C12B22000D120D158D101F
:100696008D11C12B22000D160D118D148D11C12B3C
:1006A60022000D160D158D148D11C12B22000D166D
:1006B6000D158D108D11C12B22000D160D118D10EB
:1006C6008D15C12B22000D120D158D148D11C12B08
:1006D60022000D120D118D108D15C12B22000D1249
:1006E6000D118D148D11C12B22000D160D118D10BB
:1006F6008D11C12B7408243E860087010108F20083
:10070600F3017308003A0319892BC12B7208003ACA
:100716000319412B013A0319472B033A03194D2BB1
:10072600013A0319532B073A0319592B013A0319B6
:100736005F2B033A0319652B013A03196B2B0F3A0A
:100746000319712B013A0319772BC12B22000C14C4
:100756008C108C130C13D72B22000C108C148C13BA
:100766000C13D72B22000C108C108C170C13D72BC4
:1007760022000C108C108C130C17D72B7408F20067
:10078600F3017308003A0319C92BD72B7208003AF4
:100796000319A92B013A0319AF2B033A0319B52BF9
:1007A600013A0319BB2BD72B0800F2007208073E4B
:1007B6008600870102300106031DE22BE32BFB2B8B
:1007C6007208063E8600870102300102031CEC2BEC
:1007D600ED2BF42B7208063E86008701013081025C
:1007E6006F2C7208063E860087011C3081006F2C34
:1007F6007208073E8600870101030319032C042CA7
:10080600402C7208073E8600870103300106031953
:100816000D2C0E2C402C7208073E860087010530F1
:1008260001060319172C182C402C7208073E860067
:100836008701073001060319212C222C402C72084F
:10084600073E860087010830010603192B2C2C2C45
:10085600402C7208073E860087010A3001060319FC
:10086600352C362C402C7208073E860087010C304A
:100876000106031D3F2C402C582C7208063E8600AC
:10088600870102300102031C492C4A2C512C7208A4
:10089600063E86008701013081026F2C7208063EF3
:1008A600860087011F3081006F2C7208063E860085
:1008B600870102300102031C612C622C692C72082C
:1008C600063E86008701013081026F2C7208063EC3
:1008D600860087011E3081000800F5007208031D9E
:1008E600752C762CCF2CB62C0130F300750A8600B9
:1008F600870173088107750A8600870106300102A1
:10090600031C862C872CD72C75088600870181014D
:10091600810AD72C0130F300750A86008701730817
:10092600810775088600870102308100D72C0130C7
:10093600F300750A8600870173088107750A860029
:100946008701FB300102031CA92CAA2CD72C7508A1
:100956008600870103308100D72C75088600870141
:1009660004308100D72C7508860087010108F30042
:10097600F4017408003A0319C12CD72C7308003A05
:100986000319772C013A03198D2C033A03199A2C73
:10099600013A0319B02CD72C75088600870181010E
:1009A600750A86008701810108002000C901F31F2E
:1009B600DD2CDE2CE52CF209F309F20A0319F30A01
:1009C600C901C90AF51FE82CE92CF22CF409F5092E
:1009D600F40A0319F50A0130F6007608C906CA01B9
:1009E600CB01720873040319F92CFA2C292DC801BE
:1009F600C80A062D0130F235F30D890BFE2C0130A5
:100A0600F6007608C807F31F092D0A2DFD2C0130C4
:100A1600CA35CB0D890B0B2D73087502031D152DD9
:100A260072087402031C182D192D1E2D7208F4026B
:100A36007308F53B4A140130F336F20C890B1F2D6F
:100A46000130C802031D282D292D0A2D4908031936
:100A56002D2D2E2D332DCA09CB09CA0A0319CB0A0F
:100A66004B08F3004A08F20008002000D7000A30BD
:100A7600F2000030F3005708063E860087010108A1
:100A8600CF00D0014F08F4005008F50086313E260D
:100A9600853172082000CC000A30F2000030F300E5
:100AA6005708073E860087010108D100D201510888
:100AB600F4005208F5008431D824853172082000EC
:100AC600CD000A30F2000030F3005708073E8600DA
:100AD60087010108D300D4015308F4005408F50037
:100AE60086313E26853172082000CE000A30F2009B
:100AF6000030F3005708063E860087010108D5003E
:100B0600D6015508F4005608F5008431D8248531FD
:100B160072088D31092585310800F30072088600B8
:100B2600870173088400850100088100720A860027
:100B36008701730A84008501000881007208023E5D
:100B4600860087017308023E840085010008810043
:100B56007208033E860087017308033E8400850100
:100B6600000881007208043E860087017308043E6F
:100B760084008501000881007208053E8600870111
:100B86007308053E84008501000881007208063E50
:100B9600860087017308063E8400850100088100EF
:100BA6007208073E860087017308073E84008501A8
:100BB600000881007208083E860087017308083E17
:100BC600840085010008810008002000D7000A3053
:100BD600F2000030F3005708860087010108CF00B5
:100BE600D0014F08F4005008F50086313E268531C5
:100BF60072082000CC000A30F2000030F3005708DB
:100C0600033E860087010108D100D2015108F40095
:100C16005208F5008431D824853172082000CD00B1
:100C26000A30F2000030F3005708033E86008701C1
:100C36000108D300D4015308F4005408F5008631A6
:100C46003E26853172082000CE000A30F2000030C0
:100C5600F3005708860087010108D500D60155081C
:100C6600F4005608F5008431D824853172088D3198
:100C7600092585310800F801F51F422E432E4A2E1C
:100C8600F409F509F40A0319F50AF801F80AF31F3D
:100C96004D2E4E2E532EF209F309F20A0319F30ACA
:100CA600720873040319582E592E822EF701F70A7B
:100CB600652E0130F235F30D890B5D2E0130F600FD
:100CC6007608F707F31F682E692E5C2E73087502E7
:100CD600031D6F2E72087402031C722E732E772E5C
:100CE6007208F4027308F53B0130F336F20C890BF7
:100CF600782E0130F702031D812E822E692E780888
:100D06000319862E872E8C2EF409F509F40A031989
:100D1600F50A7508F3007408F20008002000440381
:100D2600031D962E972EA82E30308031292086312D
:100D36003930F200303085319025863139308531B1
:100D4600E82586312000AE01C32E4603031DAC2ED6
:100D5600AD2EB62E30308D31E825863130308531D6
:100D660038258631C32E4203031DBA2EBB2EC32E51
:100D760030308E31682686313030853138258631DF
:100D8600003020002B02C83003192A020318CC2E8B
:100D9600CD2ED62EF201F20AF301F40101308C3188
:100DA600D9248631D92E8C31E424863108002000DE
:100DB600C800480A8600870101080319E32EE42EBD
:100DC6000B2F4808860087010C3001020318EC2E11
:100DD600ED2EF52E0130F9004808860087017908C6
:100DE6008107212F4808860087018101810A48086A
:100DF600023E860087014808023E840085010008FD
:100E06000319062F082F0130092F00308100212FEA
:100E16004808860087011830F2000030F3004808C1
:100E2600840085010008013EF400003003180130FB
:100E3600F50086313E2686317208810008008D3124
:100E4600372587314A30F2000D30F3008C31B82453
:100E560087318B170B1739308131C22187313930F1
:100E66008531E825873120002F0803193B2F3C2FB9
:100E7600362F8E31D72687318E31BB2687318F317B
:100E86001927873120002A082B04031D4B2F4C2FCE
:100E9600642F39308E311A26873120003D08031D14
:100EA600552F562F642F39308131C22187312000CA
:100EB6002E08031D5F2F602F642F39308531E825FA
:100EC60087312000AF01362F80311928F200720ACF
:100ED6008600870101080319712F722F972F720858
:100EE6008600870102300102031C7A2F7B2F812F97
:100EF60072088600870101308102AA2F72088600D7
:100F060087018101810A7208023E86008701720804
:100F1600023E8400850100080319922F942F0130A8
:100F2600952F00308100AA2F7208860087010108DC
:100F360003199E2F9F2FA52F720886008701013067
:100F46008102AA2F720886008701173081000800E7
:100F560020004403031DB02FB12FB82F0430AE007C
:100F66003030853138258731D32F4603031DBC2FFA
:100F7600BD2FC62F30308D319F25873130308531DA
:100F8600E8258731D32F4203031DCA2FCB2FD32F3A
:100F960030308E313426873130308531E82587313F
:100FA600003020002B02C83003192A020318DC2F58
:100FB600DD2FE62FF201F20AF301F40101308C3144
:100FC600D9248731E92F8C31E424873108002000A9
:100FD60011102D08F1002C08F0008D3126258731DF
:100FE60020005E085F040319F92FFA2FFF2F5F0810
:0A0FF6008A005E080A008731080037
:10196800163021009700080073082000DF00720875
:10197800DE00080022000C108C108C130C130800D9
:10198800640080010131890BC52C003468302100C6
:10199800990098012200960108004A3020009B0017
:1019A8009A01911004309C000800F5007508200089
:1019B800A0007208A1007308A2007408A300080020
:1019C800F201F20AF301F30AF401F40A01308C314E
:1019D800D9248C31080021000E1622008E16210011
:1019E8000E1222000E12003222008E1208002C3035
:1019F80025009300950180309400013096009201F3
:101A080045309100FC309E050800F9007908200057
:101A1800A4004C08A5004D08A6004E08A7008C316C
:101A2800E4248D31080022008E1221000E122200BB
:101A38000E12003222008E1621000E1600322200ED
:101A48008E1208002000181D2A2D2B2D322D18105B
:101A580071089700700896001814362D71089700C1
:101A68007008960008008E3183268D318C31CA2487
:101A78008D318C31B4248D318C31FB248D318C31F6
:101A8800D1248D318D3187258D310800013020001A
:101A9800AF008F302A06031D552D2B03031D552D2E
:101AA800562D592DAA01AB015D2D0130AA07003032
:101AB800AB3D0800F30022008E12003221000E1602
:101AC80022008E1620000E0E0139F20073088600DF
:101AD80087017208810422008E120800F500F401C3
:101AE800751C772D782D7C2D7208F3007308F40788
:101AF8000310F20D0310F50C7508031D842D852DB8
:101B0800742D7408080020009901F63097003C30C5
:101B1800960011101708AD001608AC00210011142A
:101B28000330F2000030F3008C31B8248D310130DD
:101B3800200098000800F2007208033E8600870122
:101B480001080319A82DA92DB02D7208033E86009F
:101B5800870101308102B62D7208033E8600870195
:101B68003B3081000800F600F501F70176088E3158
:101B78009F268D317635F6000130F4007408F7079A
:101B880008307702031CC92DCA2DBA2D75308D3146
:101B98005E258D31080001302000A8070030A93DDE
:101BA80046030319D82DD92DE22DD0302806073049
:101BB80003192906031DE12DE22DE72DAE01393069
:101BC8008531E8258D310800F2007208073E86004D
:101BD800870102300102031CF22DF32DFA2D720841
:101BE800073E8600870101308102002E7208073EF9
:101BF800860087010C3081000800F500F701F60126
:101C08007735F70077308D315E258E310130F4005D
:101C18007408F60708307602031C132E142E042EBF
:101C280075088E319F268E3177080800F3007308F7
:101C3800043E860087013B3001020318242E252E1E
:101C48002E2E0130F2007308043E860087017208C8
:101C58008107332E7308043E86008701810108003E
:101C6800F9007908033E860087013C30F200003015
:101C7800F3007908033E840085010008013EF40062
:101C8800003003180130F50086313E268E31720887
:101C9800810008002000C800C901612E49084807D2
:101CA800F90079088600870101088D31B7258E3142
:101CB8000130F90079082000C90778084902031C97
:101CC800662E672E522E0800F3007308073E860022
:101CD80087010C3001020318722E732E7C2E0130FE
:101CE800F2007308073E8600870172088107822E7A
:101CF8007308073E860087018101810A08002200D7
:101D080090018C018D018E010830210090003C303B
:101D18008C00E1308D00CB308E001F3023008D0009
:101D28003F308C0024009001E0308D002100951395
:101D380022009D010800F30022008E1221000E12DD
:101D48007308F2000730F236890BA72E72080319C0
:101D5800AE2EAF2EB22E22000E16B42E22000E1278
:101D6800003222008E16003222008E120800003047
:101D780020008D1B0130F2004630843170248E31F2
:101D8800003020000D1B0130F200443084317024F3
:101D98008E31003020008D1A0130F200423084313B
:101DA80070248E3108007A080319DB2EDC2EE12E10
:101DB8008C31BE248E31FA01F42E7B08203E860039
:101DC800870101080319E92EEA2EEE2E7B088331DC
:101DD8003F238E317B08013E0339FB00FA01FA0AE2
:101DE8000800033020004406031DFB2EFC2E0A2F9A
:101DF8003030F2003930853190258E3130308531E0
:101E0800E8258E3102302000AE00182F4603031D4E
:101E18000E2F0F2F182F3930853138258E3120009D
:101E2800A801A901AE01AE0A0800322F8E31F526AD
:101E38008F314F2F8D31CF258F314F2F8F31C427C1
:101E48008F314F2F8731AB278F314F2F8F31882715
:101E58008F314F2F863191268F314F2F20002E083A
:101E6800DC00DD015D08003A03193B2F4F2F5C08A9
:101E7800003A03191A2F013A03191E2F033A0319BE
:101E8800222F013A0319262F073A03192A2F013A5C
:101E980003192E2F4F2F08002000CA00CB01662FF0
:101EA80000308E3101268F312000C8004B084A07C8
:101EB800C900490886008701480881000130C80028
:101EC8004808CB077808FF3EC800FF3003180030E9
:101ED800C9004908803A803C031D742F48084B020A
:101EE800031C772F782F542F80308E3101268F31A5
:101EF8002000C80078084A07C9004908FF3E860044
:101F0800870148088100080020004403031D8D2F25
:101F18008E2F912F0530AE00AC2F4603031D952F51
:101F2800962F9F2F30308331D8238F313030853131
:101F380038258F31AC2F4203031DA32FA42FAC2FBC
:101F480030308231A1228F313030853138258F31C0
:101F5800003020002B02C83003192A020318B52FBD
:101F6800B62FC02FF201F301F30AF401F40A00308E
:101F78008C31D9248F31C32F8C31E4248F31080060
:101F880020004403031DC92FCA2FCD2F0330AE00F4
:101F9800E82F4603031DD12FD22FDB2F3030873196
:101FA80069278F3130308531E8258F31E82F42039A
:101FB800031DDF2FE02FE82F30308631DA268F31EE
:101FC80030308531E8258F31003020002B02C830B1
:101FD80003192A020318F12FF22FFC2FF201F30143
:101FE800F30AF401F40A00308C31D9248F31FF2F21
:081FF8008C31E4248F31080054
:020000040001F9
:08000000FF3FFF3FFF3FFF3F00
:04000E00E43FFF3E8E
:00000001FF
